:100000000C942A000C9436000C9452000C946E0050
:100010000C94D6000C94D6000C94D6000C94D60008
:100020000C94D6000C94D6000C94D6000C94D600F8
:100030000C94D6000C94D6000C94D6000C94D600E8
:100040000C94D6000C94D6000C94D6000C94D600D8
:100050000C94D60011241FBECFE5D8E0DEBFCDBF83
:0C0060000E94BD000C94CB00F894FFCF70
:10006C001F920F920FB60F9211242F938F939F9381
:10007C0082B3806282BB2FEF89E698E121508040E9
:10008C009040E1F700C000009F918F912F910F904D
:08009C000FBE0F901F90189594
:1000A4001F920F920FB60F9211242F938F939F9349
:1000B40082B3806482BB2FEF89E698E121508040AF
:1000C4009040E1F700C000009F918F912F910F9015
:0800D4000FBE0F901F9018955C
:1000DC001F920F920FB60F9211242F938F939F9311
:1000EC0082B3806882BB2FEF89E698E12150804073
:1000FC009040E1F700C000009F918F912F910F90DD
:08010C000FBE0F901F90189523
:1001140085B78D7F85BF85B7816085BF85B78860CA
:1001240085BF85B7846085BF84B78F7B84BF8BB759
:1001340080628BBF8BB780648BBF8BB780688BBFAB
:04014400789408950E
:1001480081B38B7F81BB81B3877F81BB87B38B7F73
:1001580087BB81B3806281BB81B3806481BB81B37B
:10016800806881BB88B3846088BB82B3846082BBAB
:020178000895E8
:10017A000E94A4000E948A0082B38F7D82BB82B350
:0C018A008F7B82BB82B38F7782BBF6CFE5
:10019600EC010E94DB000E94DA00CE010E94DC0026
:0601A600CE010E94D8000A
:0401AC000C940000AF
:0401B0000E94340075
:0201B4000895AC
:0201B6000895AA
:0201B8000895A8
:00000001FF
