S00F0000447269766572732E7372656336
S11300000C942A000C943F000C943F000C943F0085
S11300100C943F000C943F000C943F000C943F0060
S11300200C943F000C943F000C943F000C943F0050
S11300300C943F000C943F000C943F000C943F0040
S11300400C943F000C943F000C943F000C943F0030
S11300500C943F0011241FBECFE5D8E0DEBFCDBF16
S113006010E0A0E6B0E0EEE6F6E002C005900D92E6
S1130070A037B107D9F70E948B010C9435030C9477
S1130080000041E063E081E00E94C50283ED90E35B
S11300900197F1F700C0000040E063E081E00E94B6
S11300A0C50283ED90E30197F1F700C000000895C5
S11300B061E080E00E94850240E061E081E00E940E
S11300C0C50241E062E081E00E94C5020E94410055
S11300D060E080E00E9485020895CF93C82F0E94BB
S11300E058004C2F441F4427441F67E080E00E94BF
S11300F0C502C6FB442740F966E080E00E94C502C1
S1130100C5FB442740F965E080E00E94C502C4FBBA
S1130110442740F964E080E00E94C50240E061E0C9
S113012081E00E94C50240E062E081E00E94C502D5
S11301300E944100C3FB442740F967E080E00E942D
S1130140C502C2FB442740F966E080E00E94C50274
S1130150C1FB442740F965E080E00E94C5024C2FB2
S1130160417064E080E00E94C5020E944100CF918A
S11301700895CF93DF9300D0CDB7DEB781E08983B4
S11301801A82BE016F5F7F4F0E94920182E08983D1
S11301901A82BE016F5F7F4F81E00E94920183E06B
S11301A089831A82BE016F5F7F4F81E00E949201B2
S11301B040E061E081E00E94C50240E062E081E04D
S11301C00E94C50240E063E081E00E94C50260E055
S11301D080E00E9485028FE097E20197F1F700C06A
S11301E0000088E20E946D0086E00E946D0080E8B5
S11301F00E946D008DE00E946D000F900F90DF91C2
S1130200CF910895CF93C82F482F441F4427441FEC
S113021067E080E00E94C502C6FB442740F966E01F
S113022080E00E94C502C5FB442740F965E080E0F8
S11302300E94C502C4FB442740F964E080E00E94A8
S1130240C50241E061E081E00E94C50240E062E055
S113025081E00E94C5020E944100C3FB442740F98B
S113026067E080E00E94C502C2FB442740F966E0D3
S113027080E00E94C502C1FB442740F965E080E0AC
S11302800E94C5024C2F417064E080E00E94C502C8
S11302900E944100CF910895811107C0603168F434
S11302A080E8860F0E946D000895813031F460313A
S11302B020F480EC860F0E946D000895EF92FF9267
S11302C01F93CF93DF937C01C0E0D0E018C011E00E
S11302D01C0F0E940201DF5F103129F460E081E00D
S11302E00E944C010BC0CF51C23040F481E00E9407
S11302F06D0060E080E00E944C0110E0C12FF70126
S1130300ED0FF11D80818111E2CFDF91CF911F911B
S1130310FF90EF9008950E94B90080E690E00E945B
S11303205E01FFCFFB01918191113CC0813099F0B6
S113033028F08230E9F0833041F108952AB381E056
S113034090E0FB01008002C0880F991F0A94E2F735
S1130350822B8ABB089527B381E090E0FB010080E3
S113036002C0880F991F0A94E2F7822B87BB089575
S113037024B381E090E0FB01008002C0880F991F44
S11303800A94E2F7822B84BB089521B381E090E0C4
S1130390FB01008002C0880F991F0A94E2F7822BA8
S11303A081BB0895913009F040C08130A1F028F05C
S11303B08230F9F0833059F108952AB381E090E056
S11303C0FB01008002C0880F991F0A94E2F7809510
S11303D082238ABB089527B381E090E0FB0100806B
S11303E002C0880F991F0A94E2F78095822387BB85
S11303F0089524B381E090E0FB01008002C0880FDF
S1130400991F0A94E2F78095822384BB089521B34F
S113041081E090E0FB01008002C0880F991F0A94DC
S1130420E2F78095822381BB0895923009F06CC075
S1130430813001F130F08230B1F1833009F44CC0E5
S113044008953AB381E090E0AC01FB01008002C062
S1130450440F551F0A94E2F7242F209523232ABB27
S11304602BB3008002C0880F991F0A94E2F7822BF5
S11304708BBB089537B381E090E0AC01FB010080B1
S113048002C0440F551F0A94E2F7242F209523231A
S113049027BB28B3008002C0880F991F0A94E2F793
S11304A0822B88BB089534B381E090E0AC01FB015A
S11304B0008002C0440F551F0A94E2F7242F2095B0
S11304C0232324BB25B3008002C0880F991F0A94FC
S11304D0E2F7822B85BB089531B381E090E0AC0153
S11304E0FB01008002C0440F551F0A94E2F7242F39
S11304F02095232321BB22B3008002C0880F991FBB
S11305000A94E2F7822B82BB0895611114C08130F2
S113051049F028F0823049F0833051F008958FEF8C
S11305208ABB08958FEF87BB08958FEF84BB08952E
S11305308FEF81BB0895613081F4813041F028F060
S1130540823039F0833039F008951ABA089517BA11
S1130550089514BA089511BA0895813051F028F01D
S1130560823059F0833069F008951ABA8FEF8BBB4B
S1130570089517BA8FEF88BB089514BA8FEF85BB1F
S1130580089511BA8FEF82BB08954130A1F58130EF
S113059089F028F08230C9F0833011F108952BB32B
S11305A081E090E002C0880F991F6A95E2F7822BE0
S11305B08BBB089528B381E090E002C0880F991F97
S11305C06A95E2F7822B88BB089525B381E090E019
S11305D002C0880F991F6A95E2F7822B85BB0895A4
S11305E022B381E090E002C0880F991F6A95E2F778
S11305F0822B82BB0895411137C0813091F028F0DD
S11306008230D9F0833029F108952BB381E090E052
S113061002C0880F991F6A95E2F7809582238BBBED
S1130620089528B381E090E002C0880F991F6A956D
S1130630E2F78095822388BB089525B381E090E09A
S113064002C0880F991F6A95E2F78095822385BBC3
S1130650089522B381E090E002C0880F991F6A9543
S1110660E2F78095822382BB0895F894FFCFC1
S113066E4C6561726E20696E20446570746800007A
S9030000FC
