:020000040800F2
:1000000000280020250A0008750A0008750A000863
:10001000750A0008750A0008750A0008000000004B
:10002000000000000000000000000000750A000849
:10003000750A000800000000750A0008750A00082B
:10004000750A0008750A0008750A0008750A000894
:10005000750A0008750A0008710100089D01000872
:10006000C9010008F501000821020008750A00080E
:10007000750A0008750A0008750A0008750A000864
:10008000750A0008750A0008750A0008750A000854
:10009000750A0008750A0008750A00084D02000874
:1000A000750A0008750A0008750A0008750A000834
:1000B000750A0008750A0008750A0008750A000824
:1000C000750A0008750A0008750A0008750A000814
:1000D000750A00084D090008610900087509000843
:1000E0001D030008750A000800000000750A0008DA
:1000F000750A0008750A0008750A0008750A0008E4
:10010000750A0008750A0008750A0008750A0008D3
:10011000750A0008750A0008750A0008750A0008C3
:10012000750A0008750A0008750A0008750A0008B3
:1001300010B5054C237833B9044B13B10448AFF321
:1001400000800123237010BD00000020000000008B
:10015000C00A000808B5034B1BB103490348AFF3BD
:10016000008008BD0000000004000020C00A000854
:1001700080B500AF074B5B69064A43F0010353614A
:10018000054B1B68002B02D0034B1B68984700BF30
:1001900080BD00BF000401401C00002080B500AFFE
:1001A000074B5B69064A43F002035361054B5B68EA
:1001B000002B02D0034B5B68984700BF80BD00BF97
:1001C000000401401C00002080B500AF074B5B69B4
:1001D000064A43F004035361054B9B68002B02D091
:1001E000034B9B68984700BF80BD00BF00040140DF
:1001F0001C00002080B500AF074B5B69064A43F046
:1002000008035361054BDB68002B02D0034BDB680E
:10021000984700BF80BD00BF000401401C000020C3
:1002200080B500AF074B5B69064A43F0100353618A
:10023000054B1B69002B02D0034B1B69984700BF7D
:1002400080BD00BF000401401C00002080B500AF4D
:10025000304B5B6903F02003002B0CD02D4B5B6906
:100260002C4A43F0200353612B4B5B69002B02D0D7
:10027000294B5B699847274B5B6903F04003002BD0
:100280000CD0244B5B69234A43F040035361224B5B
:100290009B69002B02D0204B9B6998471D4B5B69E3
:1002A00003F08003002B0CD01A4B5B69194A43F012
:1002B00080035361184BDB69002B02D0164BDB69BE
:1002C0009847144B5B6903F48073002B0CD0114BDF
:1002D0005B69104A43F4807353610F4B1B6A002B18
:1002E00002D00D4B1B6A98470A4B5B6903F40073FD
:1002F000002B0CD0074B5B69064A43F40073536133
:10030000054B5B6A002B02D0034B5B6A984700BF2A
:1003100080BD00BF000401401C00002080B500AF7C
:10032000394B5B6903F48063002B0CD0364B5B695F
:10033000354A43F480635361344B9B6A002B02D0EF
:10034000324B9B6A9847304B5B6903F40063002B88
:100350000CD02D4B5B692C4A43F4006353612B4B4B
:10036000DB6A002B02D0294BDB6A9847264B5B697E
:1003700003F48053002B0CD0234B5B69224A43F4D7
:1003800080535361214B1B6B002B02D01F4B1B6B07
:1003900098471D4B5B6903F40053002B0CD01A4B9C
:1003A0005B69194A43F400535361184B5B6B002B94
:1003B00002D0164B5B6B9847134B5B6903F4804389
:1003C000002B0CD0104B5B690F4A43F48043536100
:1003D0000E4B9B6B002B02D00C4B9B6B98470A4B30
:1003E0005B6903F40043002B0CD0074B5B69064AA2
:1003F00043F400435361054BDB6B002B02D0034BEE
:10040000DB6B984700BF80BD000401401C0000204A
:1004100080B483B000AF0346FB71FB790F2B43D848
:1004200001A252F823F000BF690400086D0400081F
:100430007104000875040008790400087D040008B0
:100440008104000885040008890400088D04000860
:100450009104000895040008990400089D04000810
:10046000A1040008A504000800231EE004231CE0EA
:1004700008231AE00C2318E0102316E0142314E0DC
:10048000182312E01C2310E000230EE004230CE0EC
:1004900008230AE00C2308E0102306E0142304E0FC
:1004A000182302E01C2300E0002318460C37BD4649
:1004B00080BC704790B585B000AF78600B46FB708C
:1004C0001346BB700023FB60FB78072B01D87B68C9
:1004D00001E07B680433FB60FB781846FFF798FF68
:1004E00003461A460F239340DA43FB681B681A4001
:1004F000FB681A60BC78FB781846FFF789FF034653
:1005000004FA03F2FB681B681A43FB681A60BB78A5
:10051000082B08D17B68DB68FA78012101FA02F226
:100520001A437B68DA6000BF1437BD4690BD0000F7
:1005300080B400AF0B4B5B689B0803F00303022BF6
:100540000AD0022B0AD8002B02D0012B02D005E0E2
:10055000054B03E0044B01E0044BFFE71846BD46A2
:1005600080BC70470010024000127A000024F400A2
:1005700080B500AFFFF7DCFF0246064B5B681B0946
:1005800003F00F03044931F8133022FA03F318463D
:1005900080BD00BF00100240E00A000880B500AF37
:1005A000FFF7E6FF0246054B5B681B0A03F00703F3
:1005B0000349CB5C22FA03F3184680BD00100240C9
:1005C000D80A000880B500AFFFF7D2FF0246054BFE
:1005D0005B68DB0A03F007030349CB5C22FA03F3F1
:1005E000184680BD00100240D80A000880B483B0CD
:1005F00000AF78607B680B4A934201D100230CE086
:100600007B68094A934201D1012306E07B68074ACF
:10061000934201D1022300E0002318460C37BD4667
:1006200080BC704700380140004401400048014050
:1006300080B584B000AF786039607868FFF7D6FF86
:10064000034619465D4A3B6842F821307B68DB6807
:1006500043F400527B68DA607B68594A934206D1C2
:10066000584B9B69574A43F48043936114E07B687D
:10067000554A934206D1534BDB69524A43F4003347
:10068000D36109E07B68514A934205D14D4BDB6948
:100690004C4A43F48023D3617B68DB683A68127864
:1006A0001A437B68DA607B68DB683A68127A1A431F
:1006B0007B68DA607B68DB683A68527A1A437B6849
:1006C000DA607B681B693A68927A1A437B681A6120
:1006D0007B685B693A68D27A1A437B685A617B68A7
:1006E000374A934203D1FFF76DFFF8600EE07B6855
:1006F000354A934203D1FFF751FFF86006E07B686B
:10070000324A934202D1FFF749FFF8603B685B68C9
:100710001B01FA68B2FBF3F31901FA6813469B0058
:1007200013449A001A443B685B689B00B2FBF3F2E7
:100730003B685B681B01F868B0FBF3F3642000FBC7
:1007400003F3D31A1B01224AA2FB03235B0903F024
:100750000F030B43BB607B68BA689A603B681B7BE6
:10076000002B26D07B68DB683A68127B1A437B68D3
:10077000DA607B68124A934206D1164B1B68154A11
:1007800043F02003136014E07B680F4A934206D1C4
:10079000104B1B680F4A43F04003136009E07B686D
:1007A0000A4A934205D10B4B1B680A4A43F0800367
:1007B000136000BF1037BD4680BD00BF5C00002045
:1007C0000038014000100240004401400048014050
:1007D0001F85EB5104E100E080B582B000AF786086
:1007E0000B467B8013467B707B78002B06D100BFC5
:1007F0007B681B6803F08003002BF9D07868FFF753
:10080000F5FE03461A46094B53F822301B7A002B9B
:1008100004D17B88DAB27B685A6002E07868FFF71F
:10082000E5FE00BF0837BD4680BD00BF5C0000206C
:1008300080B584B000AFF860B9601346FB71FB79F6
:10084000002B06D100BFFB681B6803F02003002BC0
:10085000F9D0F868FFF7CAFE03461A461B4B53F857
:1008600022305B7A002B16D1F868FFF7BFFE0346F3
:100870001A46164B53F822301B7A002B07D1FB681F
:100880005B689BB2DBB29AB2BB681A801AE0F86868
:10089000FFF7ACFE16E0F868FFF7A8FE03461A461D
:1008A0000A4B53F822301B7A002B08D1FB685B6897
:1008B0009BB203F07F039AB2BB681A8002E0F8682B
:1008C000FFF794FE00BF1037BD4680BD5C000020DE
:1008D00080B582B000AF78607B68174A93420AD136
:1008E000092209211548FFF7E5FD04220A211348D2
:1008F000FFF7E0FD1CE07B68114A93420AD1092210
:1009000002210E48FFF7D6FD042203210B48FFF712
:10091000D1FD0DE07B680B4A934209D109220A21DF
:100920000948FFF7C7FD04220B210748FFF7C2FD66
:1009300000BF0837BD4680BD0038014000080140B7
:100940000044014000480140000C014080B500AF68
:10095000024B1B681B69984700BF80BD5C000020EC
:1009600080B500AF024B5B681B69984700BF80BD34
:100970005C00002080B500AF024B9B681B69984764
:1009800000BF80BD5C00002080B400AF074B9B69B6
:10099000064A43F004039361044B9B69034A43F006
:1009A0000103936100BFBD4680BC70470010024048
:1009B00080B500AF012207490748FFF739FF054B13
:1009C0001B789BB2002219460348FFF705FF00BFC2
:1009D00080BD00BF680000200038014080B586B0AF
:1009E00000AF4FF4E133BB600023FB7320233B7463
:1009F0000A4B7B6100233B7300237B730023BB7393
:100A00000C233B71FFF7C0FF3B1D19460448FFF75D
:100A10000FFE0348FFF75CFFFEE700BFB1090008C7
:100A2000003801400D488546AFF300800C480D4961
:100A30000D4A002302E0D458C4500433C4188C4239
:100A4000F9D30A4A0A4C002301E013600432A2429F
:100A5000FBD300F011F8FFF7C1FFFEE700280020EC
:100A60000000002000000020080B0008000000200B
:100A70006C000020FEE7000070B500260C4D0D4C08
:100A8000641BA410A64209D100F01AF800260A4DF2
:100A90000A4C641BA410A64205D170BD55F8043B56
:100AA00098470136EEE755F8043B98470136F2E7E0
:100AB000000B0008000B0008000B0008040B0008E6
:100AC000F8B500BFF8BC08BC9E467047F8B500BF3B
:080AD000F8BC08BC9E4670470B
:100AD8000000000001020304000000000000000004
:100AE80000000000000000000100020003000400F4
:080AF8000600070008000900D8
:040B00005501000893
:040B040031010008B3
:0400000508000A25C0
:00000001FF
