:020000040800F2
:1000000000280020F90A0008490B0008490B0008E5
:10001000490B0008490B0008490B000800000000CC
:10002000000000000000000000000000ED080008D3
:10003000490B000800000000490B0008490B0008AC
:10004000490B0008490B0008490B0008490B000840
:10005000490B0008490B0008F10400081D050008C1
:100060004905000875050008A1050008490B0008AE
:10007000490B0008490B0008490B0008490B000810
:10008000490B0008490B0008490B0008490B000800
:10009000490B0008490B0008490B0008CD05000872
:1000A000490B0008490B0008490B0008490B0008E0
:1000B000490B0008490B0008490B0008490B0008D0
:1000C000490B0008490B0008490B0008490B0008C0
:1000D000490B0008B1080008C5080008D908000845
:1000E0009D060008490B000800000000490B0008AD
:1000F000490B0008490B0008490B0008490B000890
:10010000490B0008490B0008490B0008490B00087F
:10011000490B0008490B0008490B0008490B00086F
:10012000490B0008490B0008490B0008490B00085F
:1001300010B5054C237833B9044B13B10448AFF321
:1001400000800123237010BD040000200000000087
:10015000940B000808B5034B1BB103490348AFF3E8
:10016000008008BD0000000008000020940B00087B
:1001700080B483B000AF0346FB71FB790F2B54D8DA
:1001800001A252F823F000BFC9010008D7010008FE
:10019000E5010008F3010008010200080F02000851
:1001A0000F0200080F0200080F0200080F020008EB
:1001B0001D0200081D0200081D0200081D020008A3
:1001C0001D0200081D0200081A4B1B68194A43F063
:1001D0004003136029E0174B1B68164A43F0800365
:1001E000136022E0134B1B68124A43F480731360C0
:1001F0001BE0104B1B680F4A43F40073136014E0BC
:100200000C4B1B680B4A43F4806313600DE0094BF1
:100210001B68084A43F40003136006E0064B1B68A2
:10022000054A43F48073136000BF00BF0C37BD461E
:1002300080BC704700E100E004E100E080B483B0DE
:1002400000AF0346FB71FB790F2B54D801A252F883
:1002500023F000BF95020008A3020008B1020008C5
:10026000BF020008CD020008DB020008DB02000824
:10027000DB020008DB020008DB020008E9020008DC
:10028000E9020008E9020008E9020008E9020008A2
:10029000E90200081A4B1B68194A43F04003136037
:1002A00029E0174B1B68164A43F08003136022E0D5
:1002B000134B1B68124A43F4807313601BE0104B0E
:1002C0001B680F4A43F40073136014E00C4B1B6867
:1002D0000B4A43F4806313600DE0094B1B68084A26
:1002E00043F40003136006E0064B1B68054A43F421
:1002F0008073136000BF00BF0C37BD4680BC7047E1
:1003000080E100E084E100E080B584B000AF786077
:100310007B6858687B681B7A0422194600F08AFAC9
:100320007B681B789B08FB737B681B7803F00303D7
:10033000DBB29B00BB73614AFB7B023352F8232084
:10034000BB7B0F2101FA03F3DB4318465B49FB7BC0
:100350000240023341F82320584AFB7B023352F813
:1003600023207B685B6856498B4216D07B685B68AC
:1003700054498B420FD07B685B6853498B4208D04D
:100380007B685B6851498B4201D1032306E000235F
:1003900004E0022302E0012300E00023B97B8B404C
:1003A00018464649FB7B0243023341F82320484B61
:1003B0009B687A681278114601228A40D24311461E
:1003C000434A0B409360424BDB687A6812781146CF
:1003D00001228A40D24311463D4A0B40D3607B68DC
:1003E0001B7B022B1ED0022B33DC002B02D0012BF7
:1003F0000CD02EE0364B9B687A68127811460122A9
:100400008A401146324A0B43936022E0304BDB684E
:100410007A681278114601228A4011462C4A0B4311
:10042000D36016E02A4B9B687A6812781146012245
:100430008A401146264A0B439360254BDB687A6855
:100440001278114601228A401146214A0B43D3609B
:1004500000BF7B681B7819467B681B691D4A42F800
:1004600021307B685B7B002B12D0012B22D1184BF3
:100470001B687A681278114601228A401146144A94
:100480000B4313607B681B781846FFF771FE11E081
:100490000F4B1B687A681278114601228A40D243BA
:1004A00011460B4A0B4013607B681B781846FFF718
:1004B000C5FE00BF00BF1037BD4680BD0000014033
:1004C00000080140000C01400010014000140140F0
:1004D000000401402000002080B582B000AF7860A9
:1004E0007868FFF711FF00BF0837BD4680BD0000E8
:1004F00080B500AF074B5B69064A43F001035361C7
:10050000054B1B68002B02D0034B1B68984700BFAC
:1005100080BD00BF000401402000002080B500AF76
:10052000074B5B69064A43F002035361054B5B6866
:10053000002B02D0034B5B68984700BF80BD00BF13
:10054000000401402000002080B500AF074B5B692C
:10055000064A43F004035361054B9B68002B02D00D
:10056000034B9B68984700BF80BD00BF000401405B
:100570002000002080B500AF074B5B69064A43F0BE
:1005800008035361054BDB68002B02D0034BDB688B
:10059000984700BF80BD00BF00040140200000203C
:1005A00080B500AF074B5B69064A43F01003536107
:1005B000054B1B69002B02D0034B1B69984700BFFA
:1005C00080BD00BF000401402000002080B500AFC6
:1005D000304B5B6903F02003002B0CD02D4B5B6983
:1005E0002C4A43F0200353612B4B5B69002B02D054
:1005F000294B5B699847274B5B6903F04003002B4D
:100600000CD0244B5B69234A43F040035361224BD7
:100610009B69002B02D0204B9B6998471D4B5B695F
:1006200003F08003002B0CD01A4B5B69194A43F08E
:1006300080035361184BDB69002B02D0164BDB693A
:100640009847144B5B6903F48073002B0CD0114B5B
:100650005B69104A43F4807353610F4B1B6A002B94
:1006600002D00D4B1B6A98470A4B5B6903F4007379
:10067000002B0CD0074B5B69064A43F400735361AF
:10068000054B5B6A002B02D0034B5B6A984700BFA7
:1006900080BD00BF000401402000002080B500AFF5
:1006A000394B5B6903F48063002B0CD0364B5B69DC
:1006B000354A43F480635361344B9B6A002B02D06C
:1006C000324B9B6A9847304B5B6903F40063002B05
:1006D0000CD02D4B5B692C4A43F4006353612B4BC8
:1006E000DB6A002B02D0294BDB6A9847264B5B69FB
:1006F00003F48053002B0CD0234B5B69224A43F454
:1007000080535361214B1B6B002B02D01F4B1B6B83
:1007100098471D4B5B6903F40053002B0CD01A4B18
:100720005B69194A43F400535361184B5B6B002B10
:1007300002D0164B5B6B9847134B5B6903F4804305
:10074000002B0CD0104B5B690F4A43F4804353617C
:100750000E4B9B6B002B02D00C4B9B6B98470A4BAC
:100760005B6903F40043002B0CD0074B5B69064A1E
:1007700043F400435361054BDB6B002B02D0034B6A
:10078000DB6B984700BF80BD0004014020000020C3
:1007900080B483B000AF0346FB71FB790F2B43D8C5
:1007A00001A252F823F000BFE9070008ED07000896
:1007B000F1070008F5070008F9070008FD07000821
:1007C0000108000805080008090800080D080008CD
:1007D0001108000815080008190800081D0800087D
:1007E000210800082508000800231EE004231CE05F
:1007F00008231AE00C2318E0102316E0142314E059
:10080000182312E01C2310E000230EE004230CE068
:1008100008230AE00C2308E0102306E0142304E078
:10082000182302E01C2300E0002318460C37BD46C5
:1008300080BC704790B585B000AF78600B46FB7008
:100840001346BB700023FB60FB78072B01D87B6845
:1008500001E07B680433FB60FB781846FFF798FFE4
:1008600003461A460F239340DA43FB681B681A407D
:10087000FB681A60BC78FB781846FFF789FF0346CF
:1008800004FA03F2FB681B681A43FB681A60BB7822
:10089000082B08D17B68DB68FA78012101FA02F2A3
:1008A0001A437B68DA6000BF1437BD4690BD000074
:1008B00080B500AF024B1B681B69984700BF80BD25
:1008C0006000002080B500AF024B5B681B69984751
:1008D00000BF80BD6000002080B500AF024B9B6868
:1008E0001B69984700BF80BD6000002080B400AF46
:1008F000EFF314834FEA53034FEA430383F314885F
:1009000000BFBD4680BC704780B483B000AF786044
:1009100039607A683B68134418460C37BD4680BC82
:10092000704780B485B000AFF860B9607A60FA684B
:10093000BB681A447B68134418461437BD4680BC14
:100940007047000080B500AF364B1B68A3F50073FD
:10095000354A1360344B1B68083B344A1360334BF1
:100960001B68643B324A1360314B1B68083B314AB9
:100970001360304B1B68643B2F4A136000BF2F4B42
:100980001B78012B24D1294B1B68194681F3098858
:10099000EFF314814FF0020241EA020181F314885F
:1009A000EFF3148343F0010383F314880221012041
:1009B000FFF7AAFF0346DAB2204B1A7003DFEFF30A
:1009C00014814FF0050201EA020181F31488D5E792
:1009D0001B4B1B78012BD1D1164B1B68194681F399
:1009E0000988EFF314814FF0020241EA020181F31A
:1009F0001488EFF3148343F0010383F31488032274
:100A000002210120FFF78DFF0346DAB20C4B1A706A
:100A100003DFEFF314814FF0050201EA020181F3D5
:100A20001488ABE7000000206C000020700000205C
:100A300074000020780000207C000020800000204E
:100A40008100002080B400AF0A4B9B69094A43F043
:100A500004039361074B9B69064A43F008039361C3
:100A6000044B9B69034A43F00103936100BFBD46F9
:100A700080BC70470010024080B400AF0C4B1B7864
:100A8000002B06D10B4B01221A70094B01221A7060
:100A900009E0074B1B78012B05D1074B01221A7087
:100AA000034B00221A7000BFBD4680BC704700BFD8
:100AB00082000020800000208100002080B588B0E6
:100AC00000AFFFF7BFFF0A4A07F10C0307CA83E82C
:100AD000070000233B76074BFB6101237B7607F180
:100AE0000C031846FFF7F8FCFFF72CFFFEE700BFEA
:100AF000AC0B0008790A00080D488546AFF300806A
:100B00000C480D490D4A002302E0D458C450043368
:100B1000C4188C42F9D30A4A0A4C002301E013603E
:100B20000432A242FBD300F011F8FFF7C7FFFEE743
:100B3000002800200000002004000020C00B000856
:100B40000400002084000020FEE7000070B50026AD
:100B50000C4D0D4C641BA410A64209D100F01AF8EC
:100B600000260A4D0A4C641BA410A64205D170BD94
:100B700055F8043B98470136EEE755F8043B984793
:100B80000136F2E7B80B0008B80B0008B80B0008F4
:100B9000BC0B0008F8B500BFF8BC08BC9E46704707
:0C0BA000F8B500BFF8BC08BC9E467047CA
:0C0BAC0009000000000C014009000000DE
:040BB80055010008DB
:040BBC0031010008FB
:040BC00000280020E9
:0400000508000AF9EC
:00000001FF
