:020000040800F2
:100000000028002059050008FD0400080305000829
:10001000090500080F05000815050008000000008C
:100020000000000000000000000000001B050008A8
:100030002705000800000000330500083F05000800
:10004000A1050008A1050008A1050008A1050008F8
:10005000A1050008A1050008A1050008A1050008E8
:10006000A1050008A1050008A1050008A1050008D8
:10007000A1050008A1050008A1050008A1050008C8
:10008000A1050008A1050008A1050008A1050008B8
:10009000A1050008A1050008A1050008A1050008A8
:1000A000A1050008A1050008A1050008A105000898
:1000B000A1050008A105000800000000A105000836
:1000C000A10500080000000000000000A1050008D4
:1000D00000000000A1050008A105000800000000C4
:1000E000A1050008A1050008A10500080000000006
:1000F0000000000000000000000000000000000000
:0C01000000000000000000005FF808F1A3
:10010C0010B5054C237833B9044B13B10448AFF345
:10011C0000800123237010BD0C00002000000000A3
:10012C00281C000808B5034B1BB103490348AFF367
:10013C00008008BD0000000010000020281C0008F2
:10014C0080B58CB000AFF8600B467A60FB72002370
:10015C0087F82F30FB7A7B620023FB6100233B6224
:10016C00FB687B61114800F050FD034687F82F3087
:10017C0097F82F30002B15D007F1100307F114015D
:10018C007A680A4800F072FC0346002B01D000F09C
:10019C002BF900BF3B691946044800F06AFD034681
:1001AC00002BF7D100BF3037BD4680BD28000020A2
:1001BC0080B58CB000AF03460A46FB801346BB806B
:1001CC000123BB620023FB610023BB61FB885B0145
:1001DC00BB600023FB60BB885B013B6100237B6140
:1001EC0000233B6201237B6207F108031946064892
:1001FC0000F02FFB0346002B01D000F0F5F800BFF8
:10020C003037BD4680BD00BF2800002080B58CB0C3
:10021C0000AFF860B9607A6000BF00210E4800F0B2
:10022C006CFE0346002BF8D007F114027B6800210A
:10023C00094800F041FD0346002B01D000F0D4F832
:10024C007B6ADAB2BB681A707B699AB2FB681A8057
:10025C0000BF3037BD4680BD2800002080B586B079
:10026C0000AF00F099F900F037F800F0A7F800F0B3
:10027C006FF840F2FF7140F2FF30FFF799FF14481E
:10028C0000F0B0FB0346002B01D000F0ADF8114A92
:10029C0007F10C0392E8030083E803000023FB75CD
:1002AC0000237B600023BB60FB7D5A1CFA75FB743A
:1002BC0007F10C031A46082140F2FF30FFF740FF0C
:1002CC003A1D791CBB1C1846FFF7A0FFECE700BFDA
:1002DC0028000020401C000880B590B000AF07F14A
:1002EC00180328220021184601F06CFC3B1D00224B
:1002FC001A605A609A60DA601A610223BB610123AA
:10030C00BB621023FB6200237B6307F118031846C2
:10031C0001F07AF80346002B01D000F065F80F23AA
:10032C007B600023BB600023FB6000233B61002348
:10033C007B613B1D0021184601F0E8FA0346002BB7
:10034C0001D000F051F800BF4037BD4680BD000021
:10035C0080B500AF174B184A1A60164B01225A6031
:10036C00144B4FF080429A60124B0022DA60114B12
:10037C004FF4A0221A610F4B00225A610D4B002240
:10038C001A760C4B00225A760A4B00229A76094BAD
:10039C000122DA76074B00221A77064B00225A7795
:1003AC00044800F05BF90346002B01D000F01CF868
:1003BC0000BF80BD280000200064004080B483B0E2
:1003CC0000AF084B9B69074A43F004039361054B4C
:1003DC009B6903F004037B607B6800BF0C37BD4650
:1003EC0080BC70470010024080B400AF72B600BFF2
:1003FC00FEE7000080B485B000AF154B9B69144A32
:10040C0043F001039361124B9B6903F00103BB6042
:10041C00BB680F4BDB690E4A43F08053D3610C4B26
:10042C00DB6903F080537B607B680A4B5B68FB6085
:10043C00FB6823F0E063FB60FB6843F00073FB6038
:10044C00044AFB68536000BF1437BD4680BC70473C
:10045C00001002400000014080B588B000AF786009
:10046C0007F1100300221A605A609A60DA607B6808
:10047C001B681C4A934231D11B4BDB691A4A43F06F
:10048C000073D361184BDB6903F00073FB60FB68EE
:10049C00154B9B69144A43F004039361124B9B69FF
:1004AC0003F00403BB60BB684FF400633B610023A3
:1004BC007B610023BB6107F1100319460B4800F068
:1004CC0027FE4FF480533B6102237B610323FB61C6
:1004DC0007F110031946054800F01AFE00BF20373B
:1004EC00BD4680BD00640040001002400008014081
:1004FC0080B400AFFEE780B400AFFEE780B400AF7D
:10050C00FEE780B400AFFEE780B400AFFEE780B436
:10051C0000AF00BFBD4680BC704780B400AF00BFC9
:10052C00BD4680BC704780B400AF00BFBD4680BCE8
:10053C00704780B500AF00F075F800BF80BD80B487
:10054C0000AF00BFBD4680BC70470000FFF7F7FF4F
:10055C000B480C490C4A002302E0D458C450043315
:10056C00C4188C42F9D3094A094C002301E01360EA
:10057C000432A242FBD301F02DFBFFF76FFE704754
:10058C00000000200C000020741C00080C0000204F
:10059C0054000020FEE7000080B500AF084B1B683C
:1005AC00074A43F010031360032000F07DFD0F2079
:1005BC0000F008F8FFF71EFF0023184680BD00BFAF
:1005CC000020024080B582B000AF7860124B1A68F0
:1005DC00124B1B7819464FF47A73B3FBF1F3B2FB51
:1005EC00F3F3184600F087FD0346002B01D00123DE
:1005FC000EE07B680F2B0AD8002279684FF0FF3091
:10060C0000F05DFD064A7B681360002300E00123C7
:10061C0018460837BD4680BD0000002008000020A9
:10062C000400002080B400AF054B1B781A46054B24
:10063C001B681344034A136000BFBD4680BC70475F
:10064C00080000205000002080B400AF024B1B6853
:10065C001846BD4680BC70475000002080B584B061
:10066C0000AF78607B68002B01D10123EDE07B6843
:10067C0093F82030DBB2002B02D17868FFF7ECFE48
:10068C007B681B681A687B681B6842F001021A6061
:10069C00FFF7DAFFF86012E0FFF7D6FF0246FB68BF
:1006AC00D31A0A2B0BD97B685B6A43F400327B6844
:1006BC005A627B68052283F820200123C5E07B6801
:1006CC001B685B6803F00103002BE5D07B681B689B
:1006DC001A687B681B6822F002021A60FFF7B4FFED
:1006EC00F86012E0FFF7B0FF0246FB68D31A0A2B42
:1006FC000BD97B685B6A43F400327B685A627B6877
:10070C00052283F8202001239FE07B681B685B682F
:10071C0003F00203002BE5D17B681B7E012B08D173
:10072C007B681B681A687B681B6842F080021A6041
:10073C0007E07B681B681A687B681B6822F08002E4
:10074C001A607B685B7E012B08D17B681B681A687A
:10075C007B681B6842F040021A6007E07B681B68EC
:10076C001A687B681B6822F040021A607B689B7ECB
:10077C00012B08D17B681B681A687B681B6842F0E8
:10078C0020021A6007E07B681B681A687B681B688C
:10079C0022F020021A607B68DB7E012B08D17B687B
:1007AC001B681A687B681B6822F010021A6007E04D
:1007BC007B681B681A687B681B6842F010021A6021
:1007CC007B681B7F012B08D17B681B681A687B68D0
:1007DC001B6842F008021A6007E07B681B681A6805
:1007EC007B681B6822F008021A607B685B7F012B18
:1007FC0008D17B681B681A687B681B6842F004028E
:10080C001A6007E07B681B681A687B681B6822F01B
:10081C0004021A607B689A687B68DB681A437B6801
:10082C001B691A437B685B6942EA03017B685B685E
:10083C005A1E7B681B680A43DA617B6800225A6285
:10084C007B68012283F82020002318461037BD4610
:10085C0080BD80B487B000AF786039607B681B685E
:10086C007B617B6893F82030FB74FB7C012B03D0FD
:10087C00FB7C022B40F0AA807B69D3F8003243F05A
:10088C0001027B69C3F800223B685B6903F01F031C
:10089C00012202FA03F3FB607B69D3F81C22FB688C
:1008AC00DB431A407B69C3F81C223B68DB69002BD5
:1008BC0023D17B69D3F80C22FB68DB431A407B699C
:1008CC00C3F80C223B68DB6819043B685B689BB27D
:1008DC003A68526919437B69483243F832103B68D5
:1008EC009B6819043B681B689AB23B685B690A43B6
:1008FC0079694833DB000B445A603B68DB69012B98
:10090C0022D17B69D3F80C22FB681A437B69C3F8AC
:10091C000C223B681B6819043B685B689BB23A6805
:10092C00526919437B69483243F832103B689B6823
:10093C0019043B68DB689AB23B685B690A437969C6
:10094C004833DB000B445A603B689B69002B09D190
:10095C007B69D3F80422FB68DB431A407B69C3F83C
:10096C00042207E07B69D3F80422FB681A437B69F5
:10097C00C3F804223B681B69002B09D17B69D3F8AF
:10098C001422FB68DB431A407B69C3F8142207E08E
:10099C007B69D3F81422FB681A437B69C3F81422D1
:1009AC003B681B6A012B07D17B69D3F81C22FB68BF
:1009BC001A437B69C3F81C227B69D3F8003223F0FD
:1009CC0001027B69C3F80022002306E07B685B6AA6
:1009DC0043F480227B685A62012318461C37BD46BB
:1009EC0080BC704780B584B000AF78607B6893F8AA
:1009FC002030DBB2012B2ED17B68022283F8202021
:100A0C007B681B681A687B681B6822F001021A60FD
:100A1C00FFF71AFEF86012E0FFF716FE0246FB68BD
:100A2C00D31A0A2B0BD97B685B6A43F400327B68C0
:100A3C005A627B68052283F82020012312E07B6830
:100A4C001B685B6803F00103002BE5D17B68002277
:100A5C005A62002306E07B685B6A43F400227B68E1
:100A6C005A62012318461037BD4680BD80B489B048
:100A7C0000AFF860B9607A603B60FB6893F8203097
:100A8C00FB77FB681B689B68BB61FB7F012B03D06A
:100A9C00FB7F022B40F0AD80BB6903F08063002B21
:100AAC000AD1BB6903F00063002B05D1BB6903F0CD
:100ABC008053002B00F09580BB691B0E03F00303E1
:100ACC007B6101227B699A403B681A60BB689B681A
:100ADC00002B0DD1BB681B685A05BB68DB68F96835
:100AEC0009681A437B6918331B010B441A600FE029
:100AFC00BB685B68DA00BB689B681A43BB68DB6841
:100B0C00F96809681A437B6918331B010B441A6096
:100B1C00FB681968BB681A697B6918331B010B44A5
:100B2C0004331A60BB681B7D012B11D1FB681A685A
:100B3C007B6918331B01134404331B68FA68116872
:100B4C0043F480727B6918331B010B4404331A6025
:100B5C007B6807331B781A067B6806331B781B04EB
:100B6C001A437B6805331B781B0213437A680432E3
:100B7C0012781046FA68116843EA00027B691B017F
:100B8C000B4403F5C6731A607B6803331B781A0693
:100B9C007B6802331B781B041A437B6801331B7878
:100BAC001B0213437A6812781046FA68116843EAFC
:100BBC0000027B691B010B4403F5C4731A60FB68CC
:100BCC001A687B6918331B0113441B68FA68116897
:100BDC0043F001027B6918331B010B441A6000239C
:100BEC000EE0FB685B6A43F40012FB685A62012357
:100BFC0006E0FB685B6A43F48022FB685A620123BF
:100C0C0018462437BD4680BC704780B485B000AF11
:100C1C0078600023FB607B6893F82030FB72FB7AD2
:100C2C00012B02D0FB7A022B1DD17B681B689B68C1
:100C3C0003F08063002B02D0FB680133FB607B6800
:100C4C001B689B6803F00063002B02D0FB68013328
:100C5C00FB607B681B689B6803F08053002B02D001
:100C6C00FB680133FB60FB6818461437BD4680BC3B
:100C7C00704780B485B000AF786039600023FB60AA
:100C8C007B6893F82030FB72FB7A012B02D0FB7A45
:100C9C00022B0BD17B681B689A683B689B061A4039
:100CAC003B689B069A4201D00123FB60FB68184607
:100CBC001437BD4680BC704780B487B000AFF86075
:100CCC00B9607A603B60FB6893F82030FB75FB7D64
:100CDC00012B03D0FB7D022B40F00381BB68002B62
:100CEC000ED1FB681B68DB6803F00303002B16D1E5
:100CFC00FB685B6A43F40012FB685A620123F7E05D
:100D0C00FB681B681B6903F00303002B07D1FB680E
:100D1C005B6A43F40012FB685A620123E8E0FB684B
:100D2C001A68BB681B331B0113441B6803F00402D5
:100D3C007B689A607B689B68002B0CD1FB681A68F7
:100D4C00BB681B331B0113441B685B0DC3F30A0206
:100D5C007B681A600BE0FB681A68BB681B331B01CD
:100D6C0013441B68DB0823F060427B685A60FB6805
:100D7C001A68BB681B331B0113441B6803F0020287
:100D8C007B68DA60FB681A68BB681B331B01134471
:100D9C0004331B6803F00803002B03D07B68082284
:100DAC001A610BE0FB681A68BB681B331B01134408
:100DBC0004331B6803F00F027B681A61FB681A6826
:100DCC00BB681B331B01134404331B681B0ADAB2C8
:100DDC007B689A61FB681A68BB681B331B01134460
:100DEC0004331B681B0C9AB27B685A61FB681A6847
:100DFC00BB681B01134403F5DC731B68DAB23B6858
:100E0C001A70FB681A68BB681B01134403F5DC738A
:100E1C001B681A0A3B680133D2B21A70FB681A6855
:100E2C00BB681B01134403F5DC731B681A0C3B688D
:100E3C000233D2B21A70FB681A68BB681B011344E8
:100E4C0003F5DC731B681A0E3B680333D2B21A70BD
:100E5C00FB681A68BB681B01134403F5DE731A6840
:100E6C003B680433D2B21A70FB681A68BB681B016A
:100E7C00134403F5DE731B681A0A3B680533D2B2C0
:100E8C001A70FB681A68BB681B01134403F5DE7308
:100E9C001B681A0C3B680633D2B21A70FB681A68CE
:100EAC00BB681B01134403F5DE731B681A0E3B6809
:100EBC000733D2B21A70BB68002B08D1FB681B68D1
:100ECC00DA68FB681B6842F02002DA6007E0FB6816
:100EDC001B681A69FB681B6842F020021A61002328
:100EEC0006E0FB685B6A43F48022FB685A620123CC
:100EFC0018461C37BD4680BC704780B485B000AF27
:100F0C00786039600023FB607B6893F82030FB72BB
:100F1C00FB7A012B02D0FB7A022B0FD13B68002B02
:100F2C0006D17B681B68DB6803F00303FB6005E0FC
:100F3C007B681B681B6903F00303FB60FB681846A6
:100F4C001437BD4680BC704780B485B000AF786064
:100F5C007B6803F00703FB600C4BDB68BB60BA6873
:100F6C004FF6FF031340BB60FB681A02BB681343C8
:100F7C0043F0BF6343F40033BB60044ABB68D360E7
:100F8C0000BF1437BD4680BC704700BF00ED00E0C9
:100F9C0080B400AF044BDB681B0A03F00703184650
:100FAC00BD4680BC704700BF00ED00E080B483B04C
:100FBC0000AF03463960FB7197F90730002B0ADB51
:100FCC003B68DAB20C4997F907301201D2B20B44E4
:100FDC0083F800230AE03B68DAB20849FB7903F096
:100FEC000F03043B1201D2B20B441A7600BF0C372C
:100FFC00BD4680BC704700BF00E100E000ED00E0A2
:10100C0080B489B000AFF860B9607A60FB6803F017
:10101C000703FB61FB69C3F10703042B28BF0423FF
:10102C00BB61FB690433062B02D9FB69033B00E06F
:10103C0000237B614FF0FF32BB6902FA03F3DA4302
:10104C00BB681A407B699A404FF0FF317B6901FA0B
:10105C0003F3D9437B680B40134318462437BD4632
:10106C0080BC704780B582B000AF78607B68013B74
:10107C00B3F1807F01D301230FE00A4A7B68013B67
:10108C0053600F214FF0FF30FFF790FF054B00220C
:10109C009A60044B07221A60002318460837BD4695
:1010AC0080BD00BF10E000E080B582B000AF78607A
:1010BC007868FFF749FF00BF0837BD4680BD80B593
:1010CC0086B000AF0346B9607A60FB7300237B6186
:1010DC00FFF75EFF78617A68B9687869FFF790FF6F
:1010EC00024697F90F3011461846FFF75FFF00BF15
:1010FC001837BD4680BD80B582B000AF7860786887
:10110C00FFF7B0FF034618460837BD4680BD000008
:10111C0080B48BB000AF7860396000237B62002311
:10112C003B6261E101227B6A02FA03F3FB613B68DB
:10113C001B68FA691340BB61BA69FB699A4240F0BB
:10114C0050813B685B68974A93425ED0954A9342C4
:10115C0075D8954A934258D0934A93426FD8934A84
:10116C00934252D0914A934269D8914A93424CD0BF
:10117C008F4A934263D88F4A934246D08D4A93420A
:10118C005DD8122B2AD8122B59D801A252F823F071
:10119C0017120008F111000803120008451200088C
:1011AC004B1200084B1200084B1200084B1200089F
:1011BC004B1200084B1200084B1200084B1200088F
:1011CC004B1200084B1200084B1200084B1200087F
:1011DC004B120008F91100080D120008764A9342D0
:1011EC0013D02CE03B68DB683B6229E03B68DB6892
:1011FC0004333B6224E03B68DB6808333B621FE04E
:10120C003B68DB680C333B621AE03B689B68002B45
:10121C0002D104233B6213E03B689B68012B05D190
:10122C0008233B627B68FA691A6109E008233B6278
:10123C007B68FA695A6103E000233B6200E000BF5F
:10124C00BB69FF2B01D87B6801E07B6804337B61B1
:10125C00BB69FF2B02D87B6A9B0002E07B6A083BD0
:10126C009B003B617B691A680F213B6901FA03F310
:10127C00DB431A40396A3B6901FA03F31A437B6971
:10128C001A603B685B6803F08053002B00F0A98068
:10129C004A4B9B69494A43F001039361474B9B6955
:1012AC0003F00103BB60BB68454A7B6A9B080233B1
:1012BC0052F82330FB607B6A03F003039B000F2280
:1012CC0002FA03F3DB43FA681340FB607B683D4A88
:1012DC0093420DD07B683C4A934207D07B683B4AD3
:1012EC00934201D1022304E0032302E0012300E036
:1012FC0000237A6A02F0030292009340FA681343C7
:10130C00FB602F497B6A9B080233FA6841F8232063
:10131C003B685B6803F48013002B06D02C4B9A6857
:10132C002B49BB6913438B6006E0294B9A68BB6958
:10133C00DB43274913408B603B685B6803F4001365
:10134C00002B06D0224BDA682149BB691343CB60D2
:10135C0006E01F4BDA68BB69DB431D491340CB60C9
:10136C003B685B6803F40033002B06D0184B5A68BB
:10137C001749BB6913434B6006E0154B5A68BB69B0
:10138C00DB43134913404B603B685B6803F48033C9
:10139C00002B1FD00E4B1A680D49BB6913430B6011
:1013AC001FE000BF000032100000311000002210BE
:1013BC00000021100000121000001110001002405B
:1013CC000000014000080140000C014000100140E9
:1013DC00000401400B4B1A68BB69DB4309491340FD
:1013EC000B607B6A01337B623B681A687B6A22FA6A
:1013FC0003F3002B7FF496AE00BF00BF2C37BD4625
:10140C0080BC70470004014080B586B000AF7860A6
:10141C007B68002B01D1012372E27B681B6803F00F
:10142C000103002B00F08780924B5B6803F00C03E8
:10143C00042B0CD08F4B5B6803F00C03082B12D1E0
:10144C008C4B5B6803F48033B3F5803F0BD1894B35
:10145C001B6803F40033002B6CD07B685B68002B9B
:10146C0068D101234CE27B685B68B3F5803F06D101
:10147C00804B1B687F4A43F4803313602EE07B68FB
:10148C005B68002B0CD17B4B1B687A4A23F48033AE
:10149C001360784B1B68774A23F4802313601DE09C
:1014AC007B685B68B3F5A02F0CD1724B1B68714A3B
:1014BC0043F4802313606F4B1B686E4A43F48033F4
:1014CC0013600BE06B4B1B686A4A23F48033136088
:1014DC00684B1B68674A23F4802313607B685B6846
:1014EC00002B13D0FFF7B0F8386108E0FFF7ACF829
:1014FC0002463B69D31A642B01D9032300E25D4BEE
:10150C001B6803F40033002BF0D014E0FFF79CF8B9
:10151C00386108E0FFF798F802463B69D31A642B50
:10152C0001D90323ECE1534B1B6803F40033002B6C
:10153C00F0D100E000BF7B681B6803F00203002BB6
:10154C0063D04C4B5B6803F00C03002B0BD0494B66
:10155C005B6803F00C03082B1CD1464B5B6803F44F
:10156C008033002B16D1434B1B6803F00203002B76
:10157C0005D07B681B69012B01D00123C0E13D4BD9
:10158C001B6823F0F8027B685B69DB003949134365
:10159C000B603AE07B681B69002B20D0364B012294
:1015AC001A60FFF751F8386108E0FFF74DF8024672
:1015BC003B69D31A022B01D90323A1E12D4B1B68E4
:1015CC0003F00203002BF0D02A4B1B6823F0F80227
:1015DC007B685B69DB00274913430B6015E0264BE6
:1015EC0000221A60FFF730F8386108E0FFF72CF89A
:1015FC0002463B69D31A022B01D9032380E11D4B10
:10160C001B6803F00203002BF0D17B681B6803F00E
:10161C000803002B3AD07B689B69002B19D0174B21
:10162C0001221A60FFF710F8386108E0FFF70CF898
:10163C0002463B69D31A022B01D9032360E10D4BFF
:10164C005B6A03F00203002BF0D0012000F09CFA3F
:10165C001CE00A4B00221A60FEF7F6FF38610FE01F
:10166C00FEF7F2FF02463B69D31A022B08D903237B
:10167C0046E100BF0010024000004242800442429A
:10168C00924B5B6A03F00203002BE9D17B681B6869
:10169C0003F00403002B00F0A6800023FB758B4B9A
:1016AC00DB6903F08053002B0DD1884BDB69874A33
:1016BC0043F08053D361854BDB6903F08053BB60EF
:1016CC00BB680123FB75824B1B6803F48073002BF2
:1016DC0018D17F4B1B687E4A43F480731360FEF76E
:1016EC00B3FF386108E0FEF7AFFF02463B69D31A3F
:1016FC00642B01D9032303E1754B1B6803F480733E
:10170C00002BF0D07B68DB68012B06D16F4B1B6A7A
:10171C006E4A43F0010313622DE07B68DB68002BFB
:10172C000CD16A4B1B6A694A23F001031362674BA5
:10173C001B6A664A23F0040313621CE07B68DB68B7
:10174C00052B0CD1614B1B6A604A43F004031362F6
:10175C005E4B1B6A5D4A43F0010313620BE05B4B6B
:10176C001B6A5A4A23F001031362584B1B6A574AEF
:10177C0023F0040313627B68DB68002B15D0FEF7A3
:10178C0063FF38610AE0FEF75FFF02463B69D31A3C
:10179C0041F28832934201D90323B1E04B4B1B6ACF
:1017AC0003F00203002BEED014E0FEF74DFF38617E
:1017BC000AE0FEF749FF02463B69D31A41F2883230
:1017CC00934201D903239BE0404B1B6A03F00203B5
:1017DC00002BEED1FB7D012B05D13C4BDB693B4A49
:1017EC0023F08053D3617B68DB69002B00F087808A
:1017FC00364B5B6803F00C03082B61D07B68DB690C
:10180C00022B46D1334B00221A60FEF71DFF3861C4
:10181C0008E0FEF719FF02463B69D31A022B01D9E7
:10182C0003236DE0294B1B6803F00073002BF0D1F0
:10183C007B681B6AB3F5803F08D1244B5B6823F4AB
:10184C0000327B689B68214913434B601F4B5B68DC
:10185C0023F474127B68196A7B685B6A0B431B491F
:10186C0013434B601B4B01221A60FEF7EDFE3861EF
:10187C0008E0FEF7E9FE02463B69D31A022B01D9B8
:10188C0003233DE0114B1B6803F00073002BF0D0D9
:10189C0035E0104B00221A60FEF7D6FE386108E0E6
:1018AC00FEF7D2FE02463B69D31A022B01D9032361
:1018BC0026E0064B1B6803F00073002BF0D11EE0F2
:1018CC007B68DB69012B07D1012319E00010024072
:1018DC0000700040600042420B4B5B68FB60FB6891
:1018EC0003F480327B681B6A9A4206D1FB6803F4CE
:1018FC0070127B685B6A9A4201D0012300E00023DE
:10190C0018461837BD4680BD0010024080B584B023
:10191C0000AF786039607B68002B01D10123D0E0E7
:10192C006A4B1B6803F007033A689A4210D9674B5D
:10193C001B6823F0070265493B6813430B60634B3C
:10194C001B6803F007033A689A4201D00123B8E000
:10195C007B681B6803F00203002B20D07B681B689C
:10196C0003F00403002B05D0594B5B68584A43F431
:10197C00E06353607B681B6803F00803002B05D001
:10198C00534B5B68524A43F460535360504B5B6853
:10199C0023F0F0027B689B684D4913434B607B68D6
:1019AC001B6803F00103002B40D07B685B68012BA4
:1019BC0007D1474B1B6803F40033002B15D10123CF
:1019CC007FE07B685B68022B07D1414B1B6803F0FF
:1019DC000073002B09D1012373E03D4B1B6803F00E
:1019EC000203002B01D101236BE0394B5B6823F020
:1019FC0003027B685B68364913434B60FEF724FE99
:101A0C00F8600AE0FEF720FE0246FB68D31A41F2AA
:101A1C008832934201D9032353E02D4B5B6803F0CA
:101A2C000C027B685B689B009A42EBD1274B1B68CE
:101A3C0003F007033A689A4210D2244B1B6823F038
:101A4C00070222493B6813430B60204B1B6803F0D1
:101A5C0007033A689A4201D0012332E07B681B6885
:101A6C0003F00403002B08D0194B5B6823F4E062ED
:101A7C007B68DB68164913434B607B681B6803F07B
:101A8C000803002B09D0124B5B6823F460527B686F
:101A9C001B69DB000E4913434B6000F021F8024632
:101AAC000B4B5B681B0903F00F030A49CB5C22FA52
:101ABC0003F3094A1360094B1B681846FEF782FDB5
:101ACC00002318461037BD4680BD00BF00200240E1
:101ADC0000100240481C00080000002004000020F8
:101AEC0080B487B000AF0023FB600023BB600023F1
:101AFC007B6100237B6000233B611E4B5B68FB60BA
:101B0C00FB6803F00C03042B02D0082B03D027E056
:101B1C00194B3B6127E0FB689B0C03F00F03174A42
:101B2C00D35C7B60FB6803F48033002B10D0114B2B
:101B3C005B685B0C03F00103114AD35CBB607B68F0
:101B4C000D4A03FB02F2BB68B2FBF3F37B6104E0CA
:101B5C007B680C4A02FB03F37B617B693B6102E00F
:101B6C00054B3B6100BF3B6918461C37BD4680BC2A
:101B7C00704700BF0010024000127A00581C000889
:101B8C00681C000800093D0080B485B000AF786087
:101B9C000A4B1B680A4AA2FB03235B0A7A6802FB06
:101BAC0003F3FB6000BFFB685A1EFA60002BF9D1EF
:101BBC0000BF00BF1437BD4680BC7047000000203A
:101BCC00D34D621003460244934200D1704703F890
:101BDC00011BF9E770B500260C4D0D4C641BA410CD
:101BEC00A64209D100F01AF800260A4D0A4C641BD3
:101BFC00A410A64205D170BD55F8043B9847013698
:101C0C00EEE755F8043B98470136F2E76C1C0008E8
:101C1C006C1C00086C1C0008701C0008F8B500BF98
:101C2C00F8BC08BC9E467047F8B500BFF8BC08BCB1
:041C3C009E46704709
:101C400043414E204E6F3A2000000000000000008B
:101C50000102030406070809020304050607080930
:0C1C60000A0B0C0D0E0F1010010200000A
:041C6C00310100083A
:041C70000D0100085A
:0C1C74000024F40010000000010000003B
:040000050800055991
:00000001FF
