:020000040800F2
:1000000000280020CD0200081D0300081D03000881
:100010001D0300081D0300081D0300080000000068
:100020000000000000000000000000001D030008A8
:100030001D030008000000001D0300081D03000848
:100040001D0300081D0300081D0300081D03000810
:100050001D0300081D0300081D0300081D03000800
:100060001D0300081D0300081D0300081D030008F0
:100070001D0300081D0300081D0300081D030008E0
:100080001D0300081D0300081D0300081D030008D0
:100090001D0300081D0300081D0300081D030008C0
:1000A0001D0300081D0300081D0300081D030008B0
:1000B0001D0300081D0300081D0300081D030008A0
:1000C0001D0300081D0300081D0300081D03000890
:1000D0001D0300081D0300081D0300081D03000880
:1000E0001D0300081D030008000000001D03000898
:1000F0001D0300081D0300081D0300081D03000860
:100100001D0300081D0300081D0300081D0300084F
:100110001D0300081D0300081D0300081D0300083F
:100120001D0300081D0300081D0300081D0300082F
:1001300010B5054C237833B9044B13B10448AFF321
:1001400000800123237010BD00000020000000008B
:100150006803000808B5034B1BB103490348AFF31C
:10016000008008BD000000000400002068030008B3
:1001700080B400AF0C4B0C4A1B6813600B4B1B6820
:100180000A4A43F001031360094B1B68084A43F015
:1001900004031360064B1B68054A43F00803136011
:1001A00000BFBD4680BC70470410024000100240F2
:1001B0001810024080B400AF224B00221A60224B7C
:1001C00000221A60214B00221A60214B00221A6083
:1001D000204B00221A60204B00221A60194B1B682A
:1001E000184A23F030031360164B1B68154A43F07E
:1001F00040031360144B1B68134A23F4401313602D
:10020000114B1B68104A43F4800313600F4B1B68AB
:100210000E4A43F0100313600C4B1B680B4A23F08B
:10022000C00313600A4B1B68094A43F48013136030
:10023000074B1B68064A23F44003136000BFBD460A
:1002400080BC70470008014004080140000C0140D8
:10025000040C01400C0801400C0C014080B582B038
:1002600000AF00237B60FFF783FFFFF7A3FF154B71
:100270001B6803F00203002B0CD1134B1B68124ABE
:1002800083F00203136000BF0E4B1B6803F00203F0
:10029000002BF9D00B4B1B685B0B03F00103012B08
:1002A000E5D1094B1B68084A83F40053136000230F
:1002B0007B6002E07B6801337B607B68FE2BF9D9B1
:1002C000D5E700BF080801400C0C01400D488546E9
:1002D000AFF300800C480D490D4A002302E0D458CA
:1002E000C4500433C4188C42F9D30A4A0A4C002380
:1002F00001E013600432A242FBD300F011F8FFF7D3
:10030000ADFFFEE7002800200000002000000020D4
:1003100088030008000000201C000020FEE7000009
:1003200070B500260C4D0D4C641BA410A64209D1DB
:1003300000F01AF800260A4D0A4C641BA410A642CD
:1003400005D170BD55F8043B98470136EEE755F8E6
:10035000043B98470136F2E7800300088003000859
:100360008003000884030008F8B500BFF8BC08BC8F
:100370009E467047F8B500BFF8BC08BC9E46704763
:04038000550100081B
:04038400310100083B
:04000005080002CD20
:00000001FF
