S00F0000447269766572732E7372656336
S11300000C942A000C943F000C943F000C943F0085
S11300100C943F000C943F000C943F000C943F0060
S11300200C943F000C943F000C943F000C943F0050
S11300300C943F000C943F000C943F000C943F0040
S11300400C943F000C943F000C943F000C943F0030
S11300500C943F0011241FBECFE5D8E0DEBFCDBF16
S113006010E0A0E6B0E0EEE1F7E002C005900D92EA
S1130070A837B107D9F70E9460010C948D030C9442
S1130080000041E063E081E00E94C8022FE788E3BA
S113009091E0215080409040E1F700C0000040E032
S11300A063E081E00E94C8022FE788E391E02150D9
S11300B080409040E1F700C000000895CF93DF93A3
S11300C000D0CDB7DEB781E089831A82BE016F5FAD
S11300D07F4F0E94950182E089831A82BE016F5F7F
S11300E07F4F81E00E94950183E089831A82BE01DB
S11300F06F5F7F4F81E00E94950161E080E00E9484
S1130100880240E061E081E00E94C80241E062E0D0
S113011081E00E94C8020E94410060E080E00E94E9
S1130120880240E062E081E00E94C8020F900F90D4
S1130130DF91CF910895CF93C82F0E945E0040E0D5
S113014061E081E00E94C80240E062E081E00E9438
S1130150C8026C2F70E080E00E9438038FE097E2C1
S11301600197F1F700C000000E944100CF9108956B
S1130170CF93DF9300D0CDB7DEB781E089831A82B5
S1130180BE016F5F7F4F0E94950182E089831A82CE
S1130190BE016F5F7F4F81E00E94950183E08983F8
S11301A01A82BE016F5F7F4F81E00E94950140E09B
S11301B061E081E00E94C80240E062E081E00E94C8
S11301C0C80240E063E081E00E94C80260E080E091
S11301D00E9488022FEF89EF90E0215080409040E8
S11301E0E1F700C0000088E30E949B0086E00E94C3
S11301F09B0080E80E949B008DE00E949B000F9072
S11302000F90DF91CF910895CF93C82F0E945E0085
S113021041E061E081E00E94C80240E062E081E0E8
S11302200E94C8026C2F70E080E00E9438038FE0C7
S113023097E20197F1F700C000000E944100CF91BE
S11302400895811107C0603168F480E8860F0E9428
S11302509B000895813031F4603120F480EC860FE6
S11302600E949B000895EF92FF921F93CF93DF9318
S11302707C01C0E0D0E018C011E01C0F0E94040112
S1130280DF5F103129F460E081E00E9421010BC09E
S1130290CF51C23040F481E00E949B0060E080E0D6
S11302A00E94210110E0C12FF701ED0FF11D8081A3
S11302B08111E2CFDF91CF911F91FF90EF900895CC
S11302C0CF93DF93CDB7DEB727970FB6F894DEBF91
S11302D00FBECDBF1E8211E01F83BE016A5F7F4F38
S11302E083E00E9495011E831F82BE016A5F7F4FD7
S11302F083E00E9495010E9448030E94B80080E6B2
S113030090E00E94330180E790E00E94570360E090
S113031081E00E94210165E0CE0101960E946E03F6
S1130320CE0101960E943301F2CFFB01918191111C
S11303303CC0813099F028F08230E9F0833041F1FB
S113034008952AB381E090E0FB01008002C0880F89
S1130350991F0A94E2F7822B8ABB089527B381E0A0
S113036090E0FB01008002C0880F991F0A94E2F715
S1130370822B87BB089524B381E090E0FB010080C9
S113038002C0880F991F0A94E2F7822B84BB089558
S113039021B381E090E0FB01008002C0880F991F27
S11303A00A94E2F7822B81BB0895913009F040C092
S11303B08130A1F028F08230F9F0833059F10895AA
S11303C02AB381E090E0FB01008002C0880F991FEE
S11303D00A94E2F7809582238ABB089527B381E0CB
S11303E090E0FB01008002C0880F991F0A94E2F795
S11303F08095822387BB089524B381E090E0FB01BC
S1130400008002C0880F991F0A94E2F78095822326
S113041084BB089521B381E090E0FB01008002C019
S1130420880F991F0A94E2F78095822381BB08956F
S1130430923009F06CC0813001F130F08230B1F1BA
S1130440833009F44CC008953AB381E090E0AC01E4
S1130450FB01008002C0440F551F0A94E2F7242FC9
S1130460209523232ABB2BB3008002C0880F991F39
S11304700A94E2F7822B8BBB089537B381E090E0B6
S1130480AC01FB01008002C0440F551F0A94E2F73F
S1130490242F2095232327BB28B3008002C0880F74
S11304A0991F0A94E2F7822B88BB089534B381E044
S11304B090E0AC01FB01008002C0440F551F0A9478
S11304C0E2F7242F2095232324BB25B3008002C008
S11304D0880F991F0A94E2F7822B85BB089531B3E4
S11304E081E090E0AC01FB01008002C0440F551F85
S11304F00A94E2F7242F2095232321BB22B3008002
S113050002C0880F991F0A94E2F7822B82BB0895D8
S1130510611114C0813049F028F0823049F08330F1
S113052051F008958FEF8ABB08958FEF87BB08952C
S11305308FEF84BB08958FEF81BB0895613081F400
S1130540813041F028F0823039F0833039F0089559
S11305501ABA089517BA089514BA089511BA0895E5
S1130560813051F028F0823059F0833069F00895D9
S11305701ABA8FEF8BBB089517BA8FEF88BB089513
S113058014BA8FEF85BB089511BA8FEF82BB08951B
S11305904130A1F5813089F028F08230C9F08330F0
S11305A011F108952BB381E090E002C0880F991FE8
S11305B06A95E2F7822B8BBB089528B381E090E023
S11305C002C0880F991F6A95E2F7822B88BB0895B1
S11305D025B381E090E002C0880F991F6A95E2F785
S11305E0822B85BB089522B381E090E002C0880F7E
S11305F0991F6A95E2F7822B82BB0895411137C097
S1130600813091F028F08230D9F0833029F10895B7
S11306102BB381E090E002C0880F991F6A95E2F73E
S1130620809582238BBB089528B381E090E002C0BB
S1130630880F991F6A95E2F78095822388BB0895F5
S113064025B381E090E002C0880F991F6A95E2F714
S11306508095822385BB089522B381E090E002C097
S1130660880F991F6A95E2F78095822382BB0895CB
S1130670813041F028F0823039F0833039F0089528
S11306806BBB089568BB089565BB089562BB08956C
S113069083E389B986E880BD8AB188608AB98AB162
S11306A080618AB908955D9BFECF8CB908950F933C
S11306B01F93CF938C01C0E003C00E945303CF5F0C
S11306C0F801EC0FF11D80818111F7CFCF911F91BB
S11306D00F9108955F9BFECF8CB10895EF92FF9226
S11306E00F931F93CF93DF937C01D62FC0E008C0F4
S11306F087010C0F111D0E946A03F8018083CF5FEC
S1130700CD17B0F3F701EC0FF11D1082DF91CF91FB
S11107101F910F91FF90EF900895F894FFCF82
S113071E57656C636F6D6520746F2055415254009C
S10B072E4D6F68616D65640004
S9030000FC
